{
  "contractName": "ItemManager",
  "abi": [
    {
      "anonymous": false,
      "inputs": [
        {
          "indexed": false,
          "internalType": "uint256",
          "name": "_itemIdex",
          "type": "uint256"
        },
        {
          "indexed": false,
          "internalType": "uint256",
          "name": "_step",
          "type": "uint256"
        },
        {
          "indexed": false,
          "internalType": "address",
          "name": "_itemAddress",
          "type": "address"
        }
      ],
      "name": "SupplyChainStep",
      "type": "event"
    },
    {
      "inputs": [],
      "name": "IsOwner",
      "outputs": [
        {
          "internalType": "bool",
          "name": "",
          "type": "bool"
        }
      ],
      "stateMutability": "view",
      "type": "function",
      "constant": true
    },
    {
      "inputs": [
        {
          "internalType": "uint256",
          "name": "",
          "type": "uint256"
        }
      ],
      "name": "items",
      "outputs": [
        {
          "internalType": "contract Item",
          "name": "_item",
          "type": "address"
        },
        {
          "internalType": "string",
          "name": "_identifier",
          "type": "string"
        },
        {
          "internalType": "uint256",
          "name": "_itemPrice",
          "type": "uint256"
        },
        {
          "internalType": "enum ItemManager.SupplyChainState",
          "name": "_state",
          "type": "uint8"
        }
      ],
      "stateMutability": "view",
      "type": "function",
      "constant": true
    },
    {
      "inputs": [
        {
          "internalType": "string",
          "name": "_identifier",
          "type": "string"
        },
        {
          "internalType": "uint256",
          "name": "_itemPrice",
          "type": "uint256"
        }
      ],
      "name": "createItem",
      "outputs": [],
      "stateMutability": "nonpayable",
      "type": "function"
    },
    {
      "inputs": [
        {
          "internalType": "uint256",
          "name": "_itemIndex",
          "type": "uint256"
        }
      ],
      "name": "triggerPayment",
      "outputs": [],
      "stateMutability": "payable",
      "type": "function",
      "payable": true
    },
    {
      "inputs": [
        {
          "internalType": "uint256",
          "name": "_itemIndex",
          "type": "uint256"
        }
      ],
      "name": "triggerDelivery",
      "outputs": [],
      "stateMutability": "nonpayable",
      "type": "function"
    }
  ],
  "bytecode": "0x6080604052336000806101000a81548173ffffffffffffffffffffffffffffffffffffffff021916908373ffffffffffffffffffffffffffffffffffffffff1602179055506110c0806100536000396000f3fe60806040526004361061004a5760003560e01c8063800fb83f1461004f5780638c5517421461007d578063bfb231d21461014f578063cd31831e14610252578063e4183cb11461028d575b600080fd5b61007b6004803603602081101561006557600080fd5b81019080803590602001909291905050506102bc565b005b34801561008957600080fd5b5061014d600480360360408110156100a057600080fd5b81019080803590602001906401000000008111156100bd57600080fd5b8201836020820111156100cf57600080fd5b803590602001918460018302840111640100000000831117156100f157600080fd5b91908080601f016020809104026020016040519081016040528093929190818152602001838380828437600081840152601f19601f82011690508083019250505050505050919291929080359060200190929190505050610507565b005b34801561015b57600080fd5b506101886004803603602081101561017257600080fd5b810190808035906020019092919050505061078e565b604051808573ffffffffffffffffffffffffffffffffffffffff1673ffffffffffffffffffffffffffffffffffffffff168152602001806020018481526020018360028111156101d457fe5b60ff168152602001828103825285818151815260200191508051906020019080838360005b838110156102145780820151818401526020810190506101f9565b50505050905090810190601f1680156102415780820380516001836020036101000a031916815260200191505b509550505050505060405180910390f35b34801561025e57600080fd5b5061028b6004803603602081101561027557600080fd5b8101908080359060200190929190505050610883565b005b34801561029957600080fd5b506102a2610aa1565b604051808215151515815260200191505060405180910390f35b34600160008381526020019081526020016000206002015414610347576040517f08c379a000000000000000000000000000000000000000000000000000000000815260040180806020018281038252601a8152602001807f4f6e6c792066756c6c207061796d656e7420616363657074656400000000000081525060200191505060405180910390fd5b6000600281111561035457fe5b6001600083815260200190815260200160002060030160009054906101000a900460ff16600281111561038357fe5b146103f6576040517f08c379a000000000000000000000000000000000000000000000000000000000815260040180806020018281038252601e8152602001807f6974656d206973206e6f7420666f756e6420696e2074686120636861696e000081525060200191505060405180910390fd5b7fa4035636e99f06b7651a604c1019fa4e8779fe68ef27eeb74dff2de348f6199b816001600084815260200190815260200160002060030160009054906101000a900460ff16600281111561044757fe5b6001600085815260200190815260200160002060000160009054906101000a900473ffffffffffffffffffffffffffffffffffffffff16604051808481526020018381526020018273ffffffffffffffffffffffffffffffffffffffff1673ffffffffffffffffffffffffffffffffffffffff168152602001935050505060405180910390a1600180600083815260200190815260200160002060030160006101000a81548160ff021916908360028111156104ff57fe5b021790555050565b61050f610aa1565b610581576040517f08c379a00000000000000000000000000000000000000000000000000000000081526004018080602001828103825260158152602001807f596f7520617265206e6f7420746865206f776e6572000000000000000000000081525060200191505060405180910390fd5b6000308260025460405161059490610af8565b808473ffffffffffffffffffffffffffffffffffffffff1673ffffffffffffffffffffffffffffffffffffffff1681526020018381526020018281526020019350505050604051809103906000f0801580156105f4573d6000803e3d6000fd5b5090508060016000600254815260200190815260200160002060000160006101000a81548173ffffffffffffffffffffffffffffffffffffffff021916908373ffffffffffffffffffffffffffffffffffffffff16021790555082600160006002548152602001908152602001600020600101908051906020019061067a929190610b05565b508160016000600254815260200190815260200160002060020181905550600060016000600254815260200190815260200160002060030160006101000a81548160ff021916908360028111156106cd57fe5b02179055507fa4035636e99f06b7651a604c1019fa4e8779fe68ef27eeb74dff2de348f6199b60025460016000600254815260200190815260200160002060030160009054906101000a900460ff16600281111561072757fe5b83604051808481526020018381526020018273ffffffffffffffffffffffffffffffffffffffff1673ffffffffffffffffffffffffffffffffffffffff168152602001935050505060405180910390a1600260008154809291906001019190505550505050565b60016020528060005260406000206000915090508060000160009054906101000a900473ffffffffffffffffffffffffffffffffffffffff1690806001018054600181600116156101000203166002900480601f0160208091040260200160405190810160405280929190818152602001828054600181600116156101000203166002900480156108605780601f1061083557610100808354040283529160200191610860565b820191906000526020600020905b81548152906001019060200180831161084357829003601f168201915b5050505050908060020154908060030160009054906101000a900460ff16905084565b61088b610aa1565b6108fd576040517f08c379a00000000000000000000000000000000000000000000000000000000081526004018080602001828103825260158152602001807f596f7520617265206e6f7420746865206f776e6572000000000000000000000081525060200191505060405180910390fd5b6001600281111561090a57fe5b6001600083815260200190815260200160002060030160009054906101000a900460ff16600281111561093957fe5b1461098f576040517f08c379a00000000000000000000000000000000000000000000000000000000081526004018080602001828103825260238152602001806110686023913960400191505060405180910390fd5b60026001600083815260200190815260200160002060030160006101000a81548160ff021916908360028111156109c257fe5b02179055507fa4035636e99f06b7651a604c1019fa4e8779fe68ef27eeb74dff2de348f6199b816001600084815260200190815260200160002060030160009054906101000a900460ff166002811115610a1857fe5b6001600085815260200190815260200160002060000160009054906101000a900473ffffffffffffffffffffffffffffffffffffffff16604051808481526020018381526020018273ffffffffffffffffffffffffffffffffffffffff1673ffffffffffffffffffffffffffffffffffffffff168152602001935050505060405180910390a150565b60008060009054906101000a900473ffffffffffffffffffffffffffffffffffffffff1673ffffffffffffffffffffffffffffffffffffffff163373ffffffffffffffffffffffffffffffffffffffff1614905090565b6104bd80610bab83390190565b828054600181600116156101000203166002900490600052602060002090601f016020900481019282601f10610b4657805160ff1916838001178555610b74565b82800160010185558215610b74579182015b82811115610b73578251825591602001919060010190610b58565b5b509050610b819190610b85565b5090565b610ba791905b80821115610ba3576000816000905550600101610b8b565b5090565b9056fe608060405234801561001057600080fd5b506040516104bd3803806104bd8339818101604052606081101561003357600080fd5b81019080805190602001909291908051906020019092919080519060200190929190505050816000819055508060028190555082600360006101000a81548173ffffffffffffffffffffffffffffffffffffffff021916908373ffffffffffffffffffffffffffffffffffffffff160217905550505050610404806100b96000396000f3fe6080604052600436106100385760003560e01c80632986c0e51461030e5780633c8da5881461033957806389794d0014610364576102ff565b366102ff576000600154146100b5576040517f08c379a00000000000000000000000000000000000000000000000000000000081526004018080602001828103825260148152602001807f6974656d206973207061696420616c726561647900000000000000000000000081525060200191505060405180910390fd5b346000541461012c576040517f08c379a000000000000000000000000000000000000000000000000000000000815260040180806020018281038252601a8152602001807f4f6e6c792066756c6c207061796d656e747320616c6c6f77656400000000000081525060200191505060405180910390fd5b346001600082825401925050819055506000600360009054906101000a900473ffffffffffffffffffffffffffffffffffffffff1673ffffffffffffffffffffffffffffffffffffffff1634600254604051602401808281526020019150506040516020818303038152906040527f800fb83f000000000000000000000000000000000000000000000000000000007bffffffffffffffffffffffffffffffffffffffffffffffffffffffff19166020820180517bffffffffffffffffffffffffffffffffffffffffffffffffffffffff83818316178352505050506040518082805190602001908083835b6020831061023b5780518252602082019150602081019050602083039250610218565b6001836020036101000a03801982511681845116808217855250505050505090500191505060006040518083038185875af1925050503d806000811461029d576040519150601f19603f3d011682016040523d82523d6000602084013e6102a2565b606091505b50509050806102fc576040517f08c379a000000000000000000000000000000000000000000000000000000000815260040180806020018281038252602d8152602001806103a2602d913960400191505060405180910390fd5b50005b34801561030b57600080fd5b50005b34801561031a57600080fd5b5061032361038f565b6040518082815260200191505060405180910390f35b34801561034557600080fd5b5061034e610395565b6040518082815260200191505060405180910390f35b34801561037057600080fd5b5061037961039b565b6040518082815260200191505060405180910390f35b60025481565b60005481565b6001548156fe746865207472616e73616374696f6e20776173206e6f74207375636365737366756c2c2063616e63656c696e67a2646970667358221220e4a7b1e0a3d5073b304def5a59e90cd523c10d296db1169203b383f1341fe33164736f6c634300060100336974656d20686173206e6f74206265656e207061696420696e2074686120636861696ea26469706673582212206823d7e33e12d833cc2874e25e5f6cef0657feaecb00c8f995cf0ee887a68e3064736f6c63430006010033",
  "source": "pragma solidity ^0.6.0;\r\n\r\nimport \"./Ownable.sol\";\r\nimport \"./Item.sol\";\r\n\r\ncontract ItemManager is Ownable {\r\n  enum SupplyChainState { Created, Paid, Delivered }\r\n  struct S_item {\r\n    Item _item;\r\n    string _identifier;\r\n    uint _itemPrice;\r\n    ItemManager.SupplyChainState _state;\r\n  }\r\n  mapping(uint => S_item) public items;\r\n  uint itemIdex;\r\n\r\n  event SupplyChainStep(uint _itemIdex, uint _step, address _itemAddress);\r\n\r\n  function createItem(string memory _identifier, uint _itemPrice) public onlyOwner {\r\n    Item item = new Item(this, _itemPrice, itemIdex);\r\n    items[itemIdex]._item = item;\r\n    items[itemIdex]._identifier = _identifier;\r\n    items[itemIdex]._itemPrice = _itemPrice;\r\n    items[itemIdex]._state = SupplyChainState.Created;\r\n    emit SupplyChainStep(itemIdex, uint(items[itemIdex]._state), address(item));\r\n    itemIdex++;\r\n  }\r\n\r\n  function triggerPayment(uint _itemIndex) public payable {\r\n    require(items[_itemIndex]._itemPrice == msg.value, \"Only full payment accepted\");\r\n    require(items[_itemIndex]._state == SupplyChainState.Created, \"item is not found in tha chain\");\r\n    emit SupplyChainStep(_itemIndex, uint(items[_itemIndex]._state), address(items[_itemIndex]._item));\r\n\r\n    items[_itemIndex]._state = SupplyChainState.Paid;\r\n  }\r\n\r\n  function triggerDelivery(uint _itemIndex) public onlyOwner {\r\n    require(items[_itemIndex]._state == SupplyChainState.Paid, \"item has not been paid in tha chain\");\r\n    items[_itemIndex]._state = SupplyChainState.Delivered;\r\n\r\n    emit SupplyChainStep(_itemIndex, uint(items[_itemIndex]._state), address(items[_itemIndex]._item));\r\n\r\n  }\r\n}\r\n",
  "sourcePath": "C:\\Users\\TRACE\\Documents\\first Dapp\\contracts\\ItemManager.sol",
  "compiler": {
    "name": "solc",
    "version": "0.6.1+commit.e6f7d5a4.Emscripten.clang"
  },
  "schemaVersion": "3.4.4",
  "updatedAt": "2022-02-16T00:47:01.669Z",
  "networkType": "ethereum",
  "devdoc": {
    "methods": {}
  },
  "userdoc": {
    "methods": {}
  }
}